{
  "transactions": [
    {
      "hash": "0xdf566f98e553bf4ff040f52c9dcdc2bd22936c87064727402641d086769a9f09",
      "transactionType": "CALL",
      "contractName": null,
      "contractAddress": null,
      "function": null,
      "arguments": null,
      "rpc": "https://eth-goerli.g.alchemy.com/v2/49Z_NgeD3j-WxnHQzifUkHA_IZUCKyrZ",
      "transaction": {
        "type": "0x02",
        "from": "0xd5d1bb95259fe2c5a84da04d1aa682c71a1b8c0e",
        "to": "0x3e7d38b97d2c1bb6554608521bf95abbe2f6ee41",
        "gas": "0x9c20",
        "value": "0xb1a2bc2ec50000",
        "data": "0x",
        "nonce": "0x43",
        "accessList": []
      },
      "additionalContracts": []
    },
    {
      "hash": "0xa3b19106bf916721c19d0163886dd7dcf3801ac1ab9f26623d44b831694affc1",
      "transactionType": "CALL",
      "contractName": "FuturoToken",
      "contractAddress": "0xA49dF10dD5B84257dE634F4350218f615471Fc69",
      "function": "transfer(address,uint256):(bool)",
      "arguments": [
        "0x3e7d38b97d2C1Bb6554608521bf95aBbE2F6EE41",
        "10000000000000000000"
      ],
      "rpc": "https://eth-goerli.g.alchemy.com/v2/49Z_NgeD3j-WxnHQzifUkHA_IZUCKyrZ",
      "transaction": {
        "type": "0x02",
        "from": "0xd5d1bb95259fe2c5a84da04d1aa682c71a1b8c0e",
        "to": "0xa49df10dd5b84257de634f4350218f615471fc69",
        "gas": "0x115b3",
        "value": "0x0",
        "data": "0xa9059cbb0000000000000000000000003e7d38b97d2c1bb6554608521bf95abbe2f6ee410000000000000000000000000000000000000000000000008ac7230489e80000",
        "nonce": "0x44",
        "accessList": []
      },
      "additionalContracts": []
    },
    {
      "hash": "0xdd6a50aeec7d7b7abba580a224a4a3fe607197d099646f3305c9e7bc8ffacdc8",
      "transactionType": "CALL",
      "contractName": "StableCoin",
      "contractAddress": "0xbA7c8D4A583375a3104f251BF40AbD5ff2953E30",
      "function": "transfer(address,uint256):(bool)",
      "arguments": [
        "0x3e7d38b97d2C1Bb6554608521bf95aBbE2F6EE41",
        "10000000000000000000"
      ],
      "rpc": "https://eth-goerli.g.alchemy.com/v2/49Z_NgeD3j-WxnHQzifUkHA_IZUCKyrZ",
      "transaction": {
        "type": "0x02",
        "from": "0xd5d1bb95259fe2c5a84da04d1aa682c71a1b8c0e",
        "to": "0xba7c8d4a583375a3104f251bf40abd5ff2953e30",
        "gas": "0xc459",
        "value": "0x0",
        "data": "0xa9059cbb0000000000000000000000003e7d38b97d2c1bb6554608521bf95abbe2f6ee410000000000000000000000000000000000000000000000008ac7230489e80000",
        "nonce": "0x45",
        "accessList": []
      },
      "additionalContracts": []
    },
    {
      "hash": "0xe510a03df369b44c5b024e1efe2c7143e056ca481055091a41bac5cb043f9e0e",
      "transactionType": "CALL",
      "contractName": null,
      "contractAddress": "0x6A505a5A69e362fE2a30660bCF6535cC16Cf1421",
      "function": "addSafeHoldings(address[])",
      "arguments": [
        "[0x91056D4A53E1faa1A84306D4deAEc71085394bC8, 0xA49dF10dD5B84257dE634F4350218f615471Fc69, 0xbA7c8D4A583375a3104f251BF40AbD5ff2953E30, 0xD87Ba7A50B2E7E660f678A895E4B72E7CB4CCd9C]"
      ],
      "rpc": "https://eth-goerli.g.alchemy.com/v2/49Z_NgeD3j-WxnHQzifUkHA_IZUCKyrZ",
      "transaction": {
        "type": "0x02",
        "from": "0xd5d1bb95259fe2c5a84da04d1aa682c71a1b8c0e",
        "to": "0x6a505a5a69e362fe2a30660bcf6535cc16cf1421",
        "gas": "0x32a60",
        "value": "0x0",
        "data": "0x61b0ff070000000000000000000000000000000000000000000000000000000000000020000000000000000000000000000000000000000000000000000000000000000400000000000000000000000091056d4a53e1faa1a84306d4deaec71085394bc8000000000000000000000000a49df10dd5b84257de634f4350218f615471fc69000000000000000000000000ba7c8d4a583375a3104f251bf40abd5ff2953e30000000000000000000000000d87ba7a50b2e7e660f678a895e4b72e7cb4ccd9c",
        "nonce": "0x46",
        "accessList": []
      },
      "additionalContracts": []
    }
  ],
  "receipts": [
    {
      "transactionHash": "0xdf566f98e553bf4ff040f52c9dcdc2bd22936c87064727402641d086769a9f09",
      "transactionIndex": "0x4",
      "blockHash": "0xd44d04f793dd044e9eff08e5ffa696cbf8f98096be4c9cd6469f965ad2a3b2e7",
      "blockNumber": "0x8332ff",
      "from": "0xD5d1bb95259Fe2c5a84da04D1Aa682C71A1B8C0E",
      "to": "0x3e7d38b97d2C1Bb6554608521bf95aBbE2F6EE41",
      "cumulativeGasUsed": "0x9641c",
      "gasUsed": "0x6ac1",
      "contractAddress": null,
      "logs": [
        {
          "address": "0x3e7d38b97d2C1Bb6554608521bf95aBbE2F6EE41",
          "topics": [
            "0x3d0ce9bfc3ed7d6862dbb28b2dea94561fe714a1b4d019aa8af39730d1ad7c3d",
            "0x000000000000000000000000d5d1bb95259fe2c5a84da04d1aa682c71a1b8c0e"
          ],
          "data": "0x00000000000000000000000000000000000000000000000000b1a2bc2ec50000",
          "blockHash": "0xd44d04f793dd044e9eff08e5ffa696cbf8f98096be4c9cd6469f965ad2a3b2e7",
          "blockNumber": "0x8332ff",
          "transactionHash": "0xdf566f98e553bf4ff040f52c9dcdc2bd22936c87064727402641d086769a9f09",
          "transactionIndex": "0x4",
          "logIndex": "0x9",
          "removed": false
        }
      ],
      "status": "0x1",
      "logsBloom": "0x00000000000200000000000000010000000000000000000000000000000000000000000000000000000000000000000000000000000000004000000000000000000000000000000000000000000000000000000000000000000000000000000000000001000000000000000000000001000000000000000000000000000000000000000000000000000000000000000000000000000000000000000000000000000000000000000000000040000000000000000000000000000000020000000000000000000000000000000000000000000000000000000000000000000000000000000000000000000000800000000020000000000000000000000000000000",
      "type": "0x2",
      "effectiveGasPrice": "0xb2e43c9a"
    },
    {
      "transactionHash": "0xa3b19106bf916721c19d0163886dd7dcf3801ac1ab9f26623d44b831694affc1",
      "transactionIndex": "0x5",
      "blockHash": "0xd44d04f793dd044e9eff08e5ffa696cbf8f98096be4c9cd6469f965ad2a3b2e7",
      "blockNumber": "0x8332ff",
      "from": "0xD5d1bb95259Fe2c5a84da04D1Aa682C71A1B8C0E",
      "to": "0xA49dF10dD5B84257dE634F4350218f615471Fc69",
      "cumulativeGasUsed": "0xa2d2a",
      "gasUsed": "0xc90e",
      "contractAddress": null,
      "logs": [
        {
          "address": "0xA49dF10dD5B84257dE634F4350218f615471Fc69",
          "topics": [
            "0xddf252ad1be2c89b69c2b068fc378daa952ba7f163c4a11628f55a4df523b3ef",
            "0x000000000000000000000000d5d1bb95259fe2c5a84da04d1aa682c71a1b8c0e",
            "0x0000000000000000000000003e7d38b97d2c1bb6554608521bf95abbe2f6ee41"
          ],
          "data": "0x0000000000000000000000000000000000000000000000008ac7230489e80000",
          "blockHash": "0xd44d04f793dd044e9eff08e5ffa696cbf8f98096be4c9cd6469f965ad2a3b2e7",
          "blockNumber": "0x8332ff",
          "transactionHash": "0xa3b19106bf916721c19d0163886dd7dcf3801ac1ab9f26623d44b831694affc1",
          "transactionIndex": "0x5",
          "logIndex": "0xa",
          "removed": false
        }
      ],
      "status": "0x1",
      "logsBloom": "0x00000000000200000000000000000000000000000000000000000000000000000000000000000000000000000008000000000004000000000000000000000000000000000000000000000008000000000000000000000000000002000000000000400001000000000000000000000000000000000000000000000010000000000000000000010000000000000000000000000000000000000000000000000000000000000000000000000000000000000000000000000000000000000000000000000002000000000000000000000000000000000000000000000000000400000000000000000000000000000000000020000000000000000000000000000000",
      "type": "0x2",
      "effectiveGasPrice": "0xb2e43c9a"
    },
    {
      "transactionHash": "0xdd6a50aeec7d7b7abba580a224a4a3fe607197d099646f3305c9e7bc8ffacdc8",
      "transactionIndex": "0x6",
      "blockHash": "0xd44d04f793dd044e9eff08e5ffa696cbf8f98096be4c9cd6469f965ad2a3b2e7",
      "blockNumber": "0x8332ff",
      "from": "0xD5d1bb95259Fe2c5a84da04D1Aa682C71A1B8C0E",
      "to": "0xbA7c8D4A583375a3104f251BF40AbD5ff2953E30",
      "cumulativeGasUsed": "0xab36c",
      "gasUsed": "0x8642",
      "contractAddress": null,
      "logs": [
        {
          "address": "0xbA7c8D4A583375a3104f251BF40AbD5ff2953E30",
          "topics": [
            "0xddf252ad1be2c89b69c2b068fc378daa952ba7f163c4a11628f55a4df523b3ef",
            "0x000000000000000000000000d5d1bb95259fe2c5a84da04d1aa682c71a1b8c0e",
            "0x0000000000000000000000003e7d38b97d2c1bb6554608521bf95abbe2f6ee41"
          ],
          "data": "0x0000000000000000000000000000000000000000000000008ac7230489e80000",
          "blockHash": "0xd44d04f793dd044e9eff08e5ffa696cbf8f98096be4c9cd6469f965ad2a3b2e7",
          "blockNumber": "0x8332ff",
          "transactionHash": "0xdd6a50aeec7d7b7abba580a224a4a3fe607197d099646f3305c9e7bc8ffacdc8",
          "transactionIndex": "0x6",
          "logIndex": "0xb",
          "removed": false
        }
      ],
      "status": "0x1",
      "logsBloom": "0x00000000000200000000000000000000000000000000000000000000000000000000000000000000000000000000100000000000000000000000000000000000000000000010000000000008000000000000000000000000000002000000000000000001000000000000000000008000000000000000000000000010000000000000000000010000000000000000000000000000000000000000000000000000000000000000000000000000000000000000000000000000000000000000000000000002000000000000000000000000000000000000000000000000000400000000000000000000000000000000000020000000000000000000000000000000",
      "type": "0x2",
      "effectiveGasPrice": "0xb2e43c9a"
    },
    {
      "transactionHash": "0xe510a03df369b44c5b024e1efe2c7143e056ca481055091a41bac5cb043f9e0e",
      "transactionIndex": "0x6",
      "blockHash": "0x368b583f1e519723920e5c78f50e4a2cd2f4d11c3e55eb0ec863bfef4dfde462",
      "blockNumber": "0x833300",
      "from": "0xD5d1bb95259Fe2c5a84da04D1Aa682C71A1B8C0E",
      "to": "0x6A505a5A69e362fE2a30660bCF6535cC16Cf1421",
      "cumulativeGasUsed": "0xa8f0a",
      "gasUsed": "0x22a1b",
      "contractAddress": null,
      "logs": [],
      "status": "0x1",
      "logsBloom": "0x00000000000000000000000000000000000000000000000000000000000000000000000000000000000000000000000000000000000000000000000000000000000000000000000000000000000000000000000000000000000000000000000000000000000000000000000000000000000000000000000000000000000000000000000000000000000000000000000000000000000000000000000000000000000000000000000000000000000000000000000000000000000000000000000000000000000000000000000000000000000000000000000000000000000000000000000000000000000000000000000000000000000000000000000000000000",
      "type": "0x2",
      "effectiveGasPrice": "0xb2e3ae3a"
    }
  ],
  "libraries": [],
  "pending": [],
  "path": "/Users/hunterking/Desktop/ethDenHack/eth-denver/backend/broadcast/MolochFund.s.sol/5/run-latest.json",
  "returns": {},
  "timestamp": 1677973311,
  "chain": 5,
  "multi": false,
  "commit": "dd39b3d"
}