{
  "transactions": [
    {
      "hash": "0xdf566f98e553bf4ff040f52c9dcdc2bd22936c87064727402641d086769a9f09",
      "transactionType": "CALL",
      "contractName": null,
      "contractAddress": null,
      "function": null,
      "arguments": null,
      "rpc": "https://eth-goerli.g.alchemy.com/v2/49Z_NgeD3j-WxnHQzifUkHA_IZUCKyrZ",
      "transaction": {
        "type": "0x02",
        "from": "0xd5d1bb95259fe2c5a84da04d1aa682c71a1b8c0e",
        "to": "0x3e7d38b97d2c1bb6554608521bf95abbe2f6ee41",
        "gas": "0x9c20",
        "value": "0xb1a2bc2ec50000",
        "data": "0x",
        "nonce": "0x43",
        "accessList": []
      },
      "additionalContracts": []
    },
    {
      "hash": "0xa3b19106bf916721c19d0163886dd7dcf3801ac1ab9f26623d44b831694affc1",
      "transactionType": "CALL",
      "contractName": "FuturoToken",
      "contractAddress": "0xA49dF10dD5B84257dE634F4350218f615471Fc69",
      "function": "transfer(address,uint256):(bool)",
      "arguments": [
        "0x3e7d38b97d2C1Bb6554608521bf95aBbE2F6EE41",
        "10000000000000000000"
      ],
      "rpc": "https://eth-goerli.g.alchemy.com/v2/49Z_NgeD3j-WxnHQzifUkHA_IZUCKyrZ",
      "transaction": {
        "type": "0x02",
        "from": "0xd5d1bb95259fe2c5a84da04d1aa682c71a1b8c0e",
        "to": "0xa49df10dd5b84257de634f4350218f615471fc69",
        "gas": "0x115b3",
        "value": "0x0",
        "data": "0xa9059cbb0000000000000000000000003e7d38b97d2c1bb6554608521bf95abbe2f6ee410000000000000000000000000000000000000000000000008ac7230489e80000",
        "nonce": "0x44",
        "accessList": []
      },
      "additionalContracts": []
    },
    {
      "hash": "0xdd6a50aeec7d7b7abba580a224a4a3fe607197d099646f3305c9e7bc8ffacdc8",
      "transactionType": "CALL",
      "contractName": "StableCoin",
      "contractAddress": "0xbA7c8D4A583375a3104f251BF40AbD5ff2953E30",
      "function": "transfer(address,uint256):(bool)",
      "arguments": [
        "0x3e7d38b97d2C1Bb6554608521bf95aBbE2F6EE41",
        "10000000000000000000"
      ],
      "rpc": "https://eth-goerli.g.alchemy.com/v2/49Z_NgeD3j-WxnHQzifUkHA_IZUCKyrZ",
      "transaction": {
        "type": "0x02",
        "from": "0xd5d1bb95259fe2c5a84da04d1aa682c71a1b8c0e",
        "to": "0xba7c8d4a583375a3104f251bf40abd5ff2953e30",
        "gas": "0xc459",
        "value": "0x0",
        "data": "0xa9059cbb0000000000000000000000003e7d38b97d2c1bb6554608521bf95abbe2f6ee410000000000000000000000000000000000000000000000008ac7230489e80000",
        "nonce": "0x45",
        "accessList": []
      },
      "additionalContracts": []
    },
    {
      "hash": "0xe510a03df369b44c5b024e1efe2c7143e056ca481055091a41bac5cb043f9e0e",
      "transactionType": "CALL",
      "contractName": null,
      "contractAddress": "0x6A505a5A69e362fE2a30660bCF6535cC16Cf1421",
      "function": "addSafeHoldings(address[])",
      "arguments": [
        "[0x91056D4A53E1faa1A84306D4deAEc71085394bC8, 0xA49dF10dD5B84257dE634F4350218f615471Fc69, 0xbA7c8D4A583375a3104f251BF40AbD5ff2953E30, 0xD87Ba7A50B2E7E660f678A895E4B72E7CB4CCd9C]"
      ],
      "rpc": "https://eth-goerli.g.alchemy.com/v2/49Z_NgeD3j-WxnHQzifUkHA_IZUCKyrZ",
      "transaction": {
        "type": "0x02",
        "from": "0xd5d1bb95259fe2c5a84da04d1aa682c71a1b8c0e",
        "to": "0x6a505a5a69e362fe2a30660bcf6535cc16cf1421",
        "gas": "0x32a60",
        "value": "0x0",
        "data": "0x61b0ff070000000000000000000000000000000000000000000000000000000000000020000000000000000000000000000000000000000000000000000000000000000400000000000000000000000091056d4a53e1faa1a84306d4deaec71085394bc8000000000000000000000000a49df10dd5b84257de634f4350218f615471fc69000000000000000000000000ba7c8d4a583375a3104f251bf40abd5ff2953e30000000000000000000000000d87ba7a50b2e7e660f678a895e4b72e7cb4ccd9c",
        "nonce": "0x46",
        "accessList": []
      },
      "additionalContracts": []
    }
  ],
  "receipts": [],
  "libraries": [],
  "pending": [
    "0xdf566f98e553bf4ff040f52c9dcdc2bd22936c87064727402641d086769a9f09",
    "0xa3b19106bf916721c19d0163886dd7dcf3801ac1ab9f26623d44b831694affc1",
    "0xdd6a50aeec7d7b7abba580a224a4a3fe607197d099646f3305c9e7bc8ffacdc8",
    "0xe510a03df369b44c5b024e1efe2c7143e056ca481055091a41bac5cb043f9e0e"
  ],
  "path": "/Users/hunterking/Desktop/ethDenHack/eth-denver/backend/broadcast/MolochFund.s.sol/5/run-latest.json",
  "returns": {},
  "timestamp": 1677973283,
  "chain": 5,
  "multi": false,
  "commit": "dd39b3d"
}