{
  "transactions": [
    {
      "hash": "0x005605c7d7c42425a0a0335ec0f3065a61af32f1ec27be1ee05870717da26e9a",
      "transactionType": "CALL",
      "contractName": null,
      "contractAddress": null,
      "function": null,
      "arguments": null,
      "rpc": "https://eth-goerli.g.alchemy.com/v2/49Z_NgeD3j-WxnHQzifUkHA_IZUCKyrZ",
      "transaction": {
        "type": "0x02",
        "from": "0xd5d1bb95259fe2c5a84da04d1aa682c71a1b8c0e",
        "to": "0x819fe72a87f0fadfa7da89a908da5afe427bb82f",
        "gas": "0x9c20",
        "value": "0xb1a2bc2ec50000",
        "data": "0x",
        "nonce": "0xaa",
        "accessList": []
      },
      "additionalContracts": []
    },
    {
      "hash": "0xdd2e14421caa2b40a14e519248973be37677efeac7ae5be25c677d2d03736534",
      "transactionType": "CALL",
      "contractName": "FuturoToken",
      "contractAddress": "0xA49dF10dD5B84257dE634F4350218f615471Fc69",
      "function": "transfer(address,uint256):(bool)",
      "arguments": [
        "0x819fe72a87F0faDfa7dA89A908Da5afE427bB82f",
        "10000000000000000000"
      ],
      "rpc": "https://eth-goerli.g.alchemy.com/v2/49Z_NgeD3j-WxnHQzifUkHA_IZUCKyrZ",
      "transaction": {
        "type": "0x02",
        "from": "0xd5d1bb95259fe2c5a84da04d1aa682c71a1b8c0e",
        "to": "0xa49df10dd5b84257de634f4350218f615471fc69",
        "gas": "0x115b3",
        "value": "0x0",
        "data": "0xa9059cbb000000000000000000000000819fe72a87f0fadfa7da89a908da5afe427bb82f0000000000000000000000000000000000000000000000008ac7230489e80000",
        "nonce": "0xab",
        "accessList": []
      },
      "additionalContracts": []
    },
    {
      "hash": "0xe866e97be3ea6f038695adc87366839a932f64ae835abd2dc231e49ab1b23c7d",
      "transactionType": "CALL",
      "contractName": "StableCoin",
      "contractAddress": "0xbA7c8D4A583375a3104f251BF40AbD5ff2953E30",
      "function": "transfer(address,uint256):(bool)",
      "arguments": [
        "0x819fe72a87F0faDfa7dA89A908Da5afE427bB82f",
        "10000000000000000000"
      ],
      "rpc": "https://eth-goerli.g.alchemy.com/v2/49Z_NgeD3j-WxnHQzifUkHA_IZUCKyrZ",
      "transaction": {
        "type": "0x02",
        "from": "0xd5d1bb95259fe2c5a84da04d1aa682c71a1b8c0e",
        "to": "0xba7c8d4a583375a3104f251bf40abd5ff2953e30",
        "gas": "0x115b3",
        "value": "0x0",
        "data": "0xa9059cbb000000000000000000000000819fe72a87f0fadfa7da89a908da5afe427bb82f0000000000000000000000000000000000000000000000008ac7230489e80000",
        "nonce": "0xac",
        "accessList": []
      },
      "additionalContracts": []
    }
  ],
  "receipts": [
    {
      "transactionHash": "0x005605c7d7c42425a0a0335ec0f3065a61af32f1ec27be1ee05870717da26e9a",
      "transactionIndex": "0x0",
      "blockHash": "0xcf8eacb1ed15cafb1a9c1d8e1305e847dbc597dc3111bb429a523e418ed83955",
      "blockNumber": "0x83382e",
      "from": "0xD5d1bb95259Fe2c5a84da04D1Aa682C71A1B8C0E",
      "to": "0x819fe72a87F0faDfa7dA89A908Da5afE427bB82f",
      "cumulativeGasUsed": "0x6ac1",
      "gasUsed": "0x6ac1",
      "contractAddress": null,
      "logs": [
        {
          "address": "0x819fe72a87F0faDfa7dA89A908Da5afE427bB82f",
          "topics": [
            "0x3d0ce9bfc3ed7d6862dbb28b2dea94561fe714a1b4d019aa8af39730d1ad7c3d",
            "0x000000000000000000000000d5d1bb95259fe2c5a84da04d1aa682c71a1b8c0e"
          ],
          "data": "0x00000000000000000000000000000000000000000000000000b1a2bc2ec50000",
          "blockHash": "0xcf8eacb1ed15cafb1a9c1d8e1305e847dbc597dc3111bb429a523e418ed83955",
          "blockNumber": "0x83382e",
          "transactionHash": "0x005605c7d7c42425a0a0335ec0f3065a61af32f1ec27be1ee05870717da26e9a",
          "transactionIndex": "0x0",
          "logIndex": "0x0",
          "removed": false
        }
      ],
      "status": "0x1",
      "logsBloom": "0x00000000000200000000000000000000000000000000000000000000000000000000000010000000000000000000000000000000000000000000000000000000000000000000000000000000000000000000000000000000000000000000000000000001000004000000000000000001000000000000000000000000000000000000000000000000000000000000000000000000000000000000000000000000000000000000000000000040000000000000000000000000000000000000000002000000000000000000000000000000000000000000000000000000000000000000000000000000000000800000000020000000000000000000000000000000",
      "type": "0x2",
      "effectiveGasPrice": "0xb2d0b595"
    },
    {
      "transactionHash": "0xdd2e14421caa2b40a14e519248973be37677efeac7ae5be25c677d2d03736534",
      "transactionIndex": "0x1",
      "blockHash": "0xcf8eacb1ed15cafb1a9c1d8e1305e847dbc597dc3111bb429a523e418ed83955",
      "blockNumber": "0x83382e",
      "from": "0xD5d1bb95259Fe2c5a84da04D1Aa682C71A1B8C0E",
      "to": "0xA49dF10dD5B84257dE634F4350218f615471Fc69",
      "cumulativeGasUsed": "0x133cf",
      "gasUsed": "0xc90e",
      "contractAddress": null,
      "logs": [
        {
          "address": "0xA49dF10dD5B84257dE634F4350218f615471Fc69",
          "topics": [
            "0xddf252ad1be2c89b69c2b068fc378daa952ba7f163c4a11628f55a4df523b3ef",
            "0x000000000000000000000000d5d1bb95259fe2c5a84da04d1aa682c71a1b8c0e",
            "0x000000000000000000000000819fe72a87f0fadfa7da89a908da5afe427bb82f"
          ],
          "data": "0x0000000000000000000000000000000000000000000000008ac7230489e80000",
          "blockHash": "0xcf8eacb1ed15cafb1a9c1d8e1305e847dbc597dc3111bb429a523e418ed83955",
          "blockNumber": "0x83382e",
          "transactionHash": "0xdd2e14421caa2b40a14e519248973be37677efeac7ae5be25c677d2d03736534",
          "transactionIndex": "0x1",
          "logIndex": "0x1",
          "removed": false
        }
      ],
      "status": "0x1",
      "logsBloom": "0x00000000000200000000000000000000000000000000000000000000000000000000000000000000000000000008000000000004000000000000000000000000000000000000000000000008000000000000000000000000000000000000000000400001000000000000000000000000000000000000000000000010400000000000000000000000000000000000000000000000000000000000000400000000000100000000000000000000000000000000000000000000000000000000000000000002000000000000000000000000000000000000000000000000000000000000000000000000000000000000000020000000000000000000000000000000",
      "type": "0x2",
      "effectiveGasPrice": "0xb2d0b595"
    },
    {
      "transactionHash": "0xe866e97be3ea6f038695adc87366839a932f64ae835abd2dc231e49ab1b23c7d",
      "transactionIndex": "0x2",
      "blockHash": "0xcf8eacb1ed15cafb1a9c1d8e1305e847dbc597dc3111bb429a523e418ed83955",
      "blockNumber": "0x83382e",
      "from": "0xD5d1bb95259Fe2c5a84da04D1Aa682C71A1B8C0E",
      "to": "0xbA7c8D4A583375a3104f251BF40AbD5ff2953E30",
      "cumulativeGasUsed": "0x1fcdd",
      "gasUsed": "0xc90e",
      "contractAddress": null,
      "logs": [
        {
          "address": "0xbA7c8D4A583375a3104f251BF40AbD5ff2953E30",
          "topics": [
            "0xddf252ad1be2c89b69c2b068fc378daa952ba7f163c4a11628f55a4df523b3ef",
            "0x000000000000000000000000d5d1bb95259fe2c5a84da04d1aa682c71a1b8c0e",
            "0x000000000000000000000000819fe72a87f0fadfa7da89a908da5afe427bb82f"
          ],
          "data": "0x0000000000000000000000000000000000000000000000008ac7230489e80000",
          "blockHash": "0xcf8eacb1ed15cafb1a9c1d8e1305e847dbc597dc3111bb429a523e418ed83955",
          "blockNumber": "0x83382e",
          "transactionHash": "0xe866e97be3ea6f038695adc87366839a932f64ae835abd2dc231e49ab1b23c7d",
          "transactionIndex": "0x2",
          "logIndex": "0x2",
          "removed": false
        }
      ],
      "status": "0x1",
      "logsBloom": "0x00000000000200000000000000000000000000000000000000000000000000000000000000000000000000000000100000000000000000000000000000000000000000000010000000000008000000000000000000000000000000000000000000000001000000000000000000008000000000000000000000000010400000000000000000000000000000000000000000000000000000000000000400000000000100000000000000000000000000000000000000000000000000000000000000000002000000000000000000000000000000000000000000000000000000000000000000000000000000000000000020000000000000000000000000000000",
      "type": "0x2",
      "effectiveGasPrice": "0xb2d0b595"
    }
  ],
  "libraries": [],
  "pending": [],
  "path": "/Users/hunterking/Desktop/ethDenHack/eth-denver/backend/broadcast/MolochFund.s.sol/5/run-latest.json",
  "returns": {},
  "timestamp": 1677992851,
  "chain": 5,
  "multi": false,
  "commit": "dd39b3d"
}