{
  "transactions": [
    {
      "hash": "0x39a6b3341a9bd8570c3f6a2fd12959814f419c2144bc56eaa15635293609f5c6",
      "transactionType": "CALL",
      "contractName": null,
      "contractAddress": null,
      "function": null,
      "arguments": null,
      "rpc": "https://eth-goerli.g.alchemy.com/v2/49Z_NgeD3j-WxnHQzifUkHA_IZUCKyrZ",
      "transaction": {
        "type": "0x02",
        "from": "0xd5d1bb95259fe2c5a84da04d1aa682c71a1b8c0e",
        "to": "0x0330811546a697fc325a3739e0bb0a32842d7860",
        "gas": "0x9c20",
        "value": "0xb1a2bc2ec50000",
        "data": "0x",
        "nonce": "0x9b",
        "accessList": []
      },
      "additionalContracts": []
    },
    {
      "hash": "0x93851c6c4dcc067858e87537cef2c4b751a1721e35985f317b2b7b57a6d806ab",
      "transactionType": "CALL",
      "contractName": "FuturoToken",
      "contractAddress": "0xA49dF10dD5B84257dE634F4350218f615471Fc69",
      "function": "transfer(address,uint256):(bool)",
      "arguments": [
        "0x0330811546A697Fc325A3739E0bB0A32842D7860",
        "10000000000000000000"
      ],
      "rpc": "https://eth-goerli.g.alchemy.com/v2/49Z_NgeD3j-WxnHQzifUkHA_IZUCKyrZ",
      "transaction": {
        "type": "0x02",
        "from": "0xd5d1bb95259fe2c5a84da04d1aa682c71a1b8c0e",
        "to": "0xa49df10dd5b84257de634f4350218f615471fc69",
        "gas": "0x115b3",
        "value": "0x0",
        "data": "0xa9059cbb0000000000000000000000000330811546a697fc325a3739e0bb0a32842d78600000000000000000000000000000000000000000000000008ac7230489e80000",
        "nonce": "0x9c",
        "accessList": []
      },
      "additionalContracts": []
    },
    {
      "hash": "0xf2f05ea5ed2babe51f032a38465b1bdef3fcd768c46366888f483b31ffcb5a0d",
      "transactionType": "CALL",
      "contractName": null,
      "contractAddress": "0xbA7c8D4A583375a3104f251BF40AbD5ff2953E30",
      "function": "transfer(address,uint256):(bool)",
      "arguments": [
        "0x0330811546A697Fc325A3739E0bB0A32842D7860",
        "10000000000000000000"
      ],
      "rpc": "https://eth-goerli.g.alchemy.com/v2/49Z_NgeD3j-WxnHQzifUkHA_IZUCKyrZ",
      "transaction": {
        "type": "0x02",
        "from": "0xd5d1bb95259fe2c5a84da04d1aa682c71a1b8c0e",
        "to": "0xba7c8d4a583375a3104f251bf40abd5ff2953e30",
        "gas": "0x115b3",
        "value": "0x0",
        "data": "0xa9059cbb0000000000000000000000000330811546a697fc325a3739e0bb0a32842d78600000000000000000000000000000000000000000000000008ac7230489e80000",
        "nonce": "0x9d",
        "accessList": []
      },
      "additionalContracts": []
    },
    {
      "hash": "0x3f3eb67364cbcfbdc5bf176076c04e9b270d5661b07d28a4925685835823071f",
      "transactionType": "CALL",
      "contractName": null,
      "contractAddress": "0x6A505a5A69e362fE2a30660bCF6535cC16Cf1421",
      "function": "addSafeHoldings(address[])",
      "arguments": [
        "[0x91056D4A53E1faa1A84306D4deAEc71085394bC8, 0xA49dF10dD5B84257dE634F4350218f615471Fc69, 0xbA7c8D4A583375a3104f251BF40AbD5ff2953E30, 0xD87Ba7A50B2E7E660f678A895E4B72E7CB4CCd9C]"
      ],
      "rpc": "https://eth-goerli.g.alchemy.com/v2/49Z_NgeD3j-WxnHQzifUkHA_IZUCKyrZ",
      "transaction": {
        "type": "0x02",
        "from": "0xd5d1bb95259fe2c5a84da04d1aa682c71a1b8c0e",
        "to": "0x6a505a5a69e362fe2a30660bcf6535cc16cf1421",
        "gas": "0x22611",
        "value": "0x0",
        "data": "0x61b0ff070000000000000000000000000000000000000000000000000000000000000020000000000000000000000000000000000000000000000000000000000000000400000000000000000000000091056d4a53e1faa1a84306d4deaec71085394bc8000000000000000000000000a49df10dd5b84257de634f4350218f615471fc69000000000000000000000000ba7c8d4a583375a3104f251bf40abd5ff2953e30000000000000000000000000d87ba7a50b2e7e660f678a895e4b72e7cb4ccd9c",
        "nonce": "0x9e",
        "accessList": []
      },
      "additionalContracts": []
    }
  ],
  "receipts": [],
  "libraries": [],
  "pending": [
    "0x39a6b3341a9bd8570c3f6a2fd12959814f419c2144bc56eaa15635293609f5c6",
    "0x93851c6c4dcc067858e87537cef2c4b751a1721e35985f317b2b7b57a6d806ab",
    "0xf2f05ea5ed2babe51f032a38465b1bdef3fcd768c46366888f483b31ffcb5a0d",
    "0x3f3eb67364cbcfbdc5bf176076c04e9b270d5661b07d28a4925685835823071f"
  ],
  "path": "/Users/hunterking/Desktop/ethDenHack/eth-denver/backend/broadcast/MolochFund.s.sol/5/run-latest.json",
  "returns": {},
  "timestamp": 1677991656,
  "chain": 5,
  "multi": false,
  "commit": "dd39b3d"
}