{
  "transactions": [
    {
      "hash": "0x0e090ec1fa08713758082fedf2062aebf4e9ee745351fc94c6e38dc1f77f279e",
      "transactionType": "CALL",
      "contractName": null,
      "contractAddress": null,
      "function": null,
      "arguments": null,
      "rpc": "https://eth-goerli.g.alchemy.com/v2/49Z_NgeD3j-WxnHQzifUkHA_IZUCKyrZ",
      "transaction": {
        "type": "0x02",
        "from": "0xd5d1bb95259fe2c5a84da04d1aa682c71a1b8c0e",
        "to": "0x355cb6a06fb08d57c04702252e0c48563aa09a33",
        "gas": "0x9c20",
        "value": "0xb1a2bc2ec50000",
        "data": "0x",
        "nonce": "0xa3",
        "accessList": []
      },
      "additionalContracts": []
    },
    {
      "hash": "0x93b1a30ca23548b09cf7a9f3940b6460022ff6388e1477408348e3f4a345717d",
      "transactionType": "CALL",
      "contractName": "FuturoToken",
      "contractAddress": "0xA49dF10dD5B84257dE634F4350218f615471Fc69",
      "function": "transfer(address,uint256):(bool)",
      "arguments": [
        "0x355cB6A06FB08D57c04702252E0C48563AA09A33",
        "10000000000000000000"
      ],
      "rpc": "https://eth-goerli.g.alchemy.com/v2/49Z_NgeD3j-WxnHQzifUkHA_IZUCKyrZ",
      "transaction": {
        "type": "0x02",
        "from": "0xd5d1bb95259fe2c5a84da04d1aa682c71a1b8c0e",
        "to": "0xa49df10dd5b84257de634f4350218f615471fc69",
        "gas": "0x115b3",
        "value": "0x0",
        "data": "0xa9059cbb000000000000000000000000355cb6a06fb08d57c04702252e0c48563aa09a330000000000000000000000000000000000000000000000008ac7230489e80000",
        "nonce": "0xa4",
        "accessList": []
      },
      "additionalContracts": []
    },
    {
      "hash": "0x52590994fca6a6e26dc56a2b9e35bddc02879351486b1e29c6d9a4772f00f6a6",
      "transactionType": "CALL",
      "contractName": "StableCoin",
      "contractAddress": "0xbA7c8D4A583375a3104f251BF40AbD5ff2953E30",
      "function": "transfer(address,uint256):(bool)",
      "arguments": [
        "0x355cB6A06FB08D57c04702252E0C48563AA09A33",
        "10000000000000000000"
      ],
      "rpc": "https://eth-goerli.g.alchemy.com/v2/49Z_NgeD3j-WxnHQzifUkHA_IZUCKyrZ",
      "transaction": {
        "type": "0x02",
        "from": "0xd5d1bb95259fe2c5a84da04d1aa682c71a1b8c0e",
        "to": "0xba7c8d4a583375a3104f251bf40abd5ff2953e30",
        "gas": "0x115b3",
        "value": "0x0",
        "data": "0xa9059cbb000000000000000000000000355cb6a06fb08d57c04702252e0c48563aa09a330000000000000000000000000000000000000000000000008ac7230489e80000",
        "nonce": "0xa5",
        "accessList": []
      },
      "additionalContracts": []
    }
  ],
  "receipts": [
    {
      "transactionHash": "0x0e090ec1fa08713758082fedf2062aebf4e9ee745351fc94c6e38dc1f77f279e",
      "transactionIndex": "0x5",
      "blockHash": "0xa342fd2ae56062cbcb9d197c1f7b1c99189b99897d5f038d9069dd864a9e252f",
      "blockNumber": "0x833802",
      "from": "0xD5d1bb95259Fe2c5a84da04D1Aa682C71A1B8C0E",
      "to": "0x355cB6A06FB08D57c04702252E0C48563AA09A33",
      "cumulativeGasUsed": "0x47310",
      "gasUsed": "0x6ac1",
      "contractAddress": null,
      "logs": [
        {
          "address": "0x355cB6A06FB08D57c04702252E0C48563AA09A33",
          "topics": [
            "0x3d0ce9bfc3ed7d6862dbb28b2dea94561fe714a1b4d019aa8af39730d1ad7c3d",
            "0x000000000000000000000000d5d1bb95259fe2c5a84da04d1aa682c71a1b8c0e"
          ],
          "data": "0x00000000000000000000000000000000000000000000000000b1a2bc2ec50000",
          "blockHash": "0xa342fd2ae56062cbcb9d197c1f7b1c99189b99897d5f038d9069dd864a9e252f",
          "blockNumber": "0x833802",
          "transactionHash": "0x0e090ec1fa08713758082fedf2062aebf4e9ee745351fc94c6e38dc1f77f279e",
          "transactionIndex": "0x5",
          "logIndex": "0x4",
          "removed": false
        }
      ],
      "status": "0x1",
      "logsBloom": "0x00000000000200000000000000000000000000000000008000000080000000000000000000000000000000000000000000000000000000000000000000000000000000000000000000000000000000000000000000000000000000000000000000000001000000000000000000100001000000000000000000000000000000000000000000000000000000000000000000000000000000000000000000000000000000000000000000000040000000000000000000000000000000000000000000000000000000000000000000000000000000000000000000000000000000000000000000000000000000800000000020000000000000000000000000000000",
      "type": "0x2",
      "effectiveGasPrice": "0xb2d097ad"
    },
    {
      "transactionHash": "0x93b1a30ca23548b09cf7a9f3940b6460022ff6388e1477408348e3f4a345717d",
      "transactionIndex": "0x6",
      "blockHash": "0xa342fd2ae56062cbcb9d197c1f7b1c99189b99897d5f038d9069dd864a9e252f",
      "blockNumber": "0x833802",
      "from": "0xD5d1bb95259Fe2c5a84da04D1Aa682C71A1B8C0E",
      "to": "0xA49dF10dD5B84257dE634F4350218f615471Fc69",
      "cumulativeGasUsed": "0x53c1e",
      "gasUsed": "0xc90e",
      "contractAddress": null,
      "logs": [
        {
          "address": "0xA49dF10dD5B84257dE634F4350218f615471Fc69",
          "topics": [
            "0xddf252ad1be2c89b69c2b068fc378daa952ba7f163c4a11628f55a4df523b3ef",
            "0x000000000000000000000000d5d1bb95259fe2c5a84da04d1aa682c71a1b8c0e",
            "0x000000000000000000000000355cb6a06fb08d57c04702252e0c48563aa09a33"
          ],
          "data": "0x0000000000000000000000000000000000000000000000008ac7230489e80000",
          "blockHash": "0xa342fd2ae56062cbcb9d197c1f7b1c99189b99897d5f038d9069dd864a9e252f",
          "blockNumber": "0x833802",
          "transactionHash": "0x93b1a30ca23548b09cf7a9f3940b6460022ff6388e1477408348e3f4a345717d",
          "transactionIndex": "0x6",
          "logIndex": "0x5",
          "removed": false
        }
      ],
      "status": "0x1",
      "logsBloom": "0x00000000000200000000000000000000000000000000000000000010000000000000000000000000000000000008000000000004000000000000000000000000000000000000000000000008000000000000000000000000000000000000000000400001000000000000000000000000000000000000000000000010000000000000000000010000000000000000000000000000000000000000000000000000000000000000000000000000000000000000000000000000000000000000000000800002000000000000000000000000000000000000000000000000000000000000000000000000000000000000000020000000000000000000000000000000",
      "type": "0x2",
      "effectiveGasPrice": "0xb2d097ad"
    },
    {
      "transactionHash": "0x52590994fca6a6e26dc56a2b9e35bddc02879351486b1e29c6d9a4772f00f6a6",
      "transactionIndex": "0x7",
      "blockHash": "0xa342fd2ae56062cbcb9d197c1f7b1c99189b99897d5f038d9069dd864a9e252f",
      "blockNumber": "0x833802",
      "from": "0xD5d1bb95259Fe2c5a84da04D1Aa682C71A1B8C0E",
      "to": "0xbA7c8D4A583375a3104f251BF40AbD5ff2953E30",
      "cumulativeGasUsed": "0x6052c",
      "gasUsed": "0xc90e",
      "contractAddress": null,
      "logs": [
        {
          "address": "0xbA7c8D4A583375a3104f251BF40AbD5ff2953E30",
          "topics": [
            "0xddf252ad1be2c89b69c2b068fc378daa952ba7f163c4a11628f55a4df523b3ef",
            "0x000000000000000000000000d5d1bb95259fe2c5a84da04d1aa682c71a1b8c0e",
            "0x000000000000000000000000355cb6a06fb08d57c04702252e0c48563aa09a33"
          ],
          "data": "0x0000000000000000000000000000000000000000000000008ac7230489e80000",
          "blockHash": "0xa342fd2ae56062cbcb9d197c1f7b1c99189b99897d5f038d9069dd864a9e252f",
          "blockNumber": "0x833802",
          "transactionHash": "0x52590994fca6a6e26dc56a2b9e35bddc02879351486b1e29c6d9a4772f00f6a6",
          "transactionIndex": "0x7",
          "logIndex": "0x6",
          "removed": false
        }
      ],
      "status": "0x1",
      "logsBloom": "0x00000000000200000000000000000000000000000000000000000010000000000000000000000000000000000000100000000000000000000000000000000000000000000010000000000008000000000000000000000000000000000000000000000001000000000000000000008000000000000000000000000010000000000000000000010000000000000000000000000000000000000000000000000000000000000000000000000000000000000000000000000000000000000000000000800002000000000000000000000000000000000000000000000000000000000000000000000000000000000000000020000000000000000000000000000000",
      "type": "0x2",
      "effectiveGasPrice": "0xb2d097ad"
    }
  ],
  "libraries": [],
  "pending": [],
  "path": "/Users/hunterking/Desktop/ethDenHack/eth-denver/backend/broadcast/MolochFund.s.sol/5/run-latest.json",
  "returns": {},
  "timestamp": 1677992225,
  "chain": 5,
  "multi": false,
  "commit": "dd39b3d"
}