{
  "transactions": [
    {
      "hash": "0x005605c7d7c42425a0a0335ec0f3065a61af32f1ec27be1ee05870717da26e9a",
      "transactionType": "CALL",
      "contractName": null,
      "contractAddress": null,
      "function": null,
      "arguments": null,
      "rpc": "https://eth-goerli.g.alchemy.com/v2/49Z_NgeD3j-WxnHQzifUkHA_IZUCKyrZ",
      "transaction": {
        "type": "0x02",
        "from": "0xd5d1bb95259fe2c5a84da04d1aa682c71a1b8c0e",
        "to": "0x819fe72a87f0fadfa7da89a908da5afe427bb82f",
        "gas": "0x9c20",
        "value": "0xb1a2bc2ec50000",
        "data": "0x",
        "nonce": "0xaa",
        "accessList": []
      },
      "additionalContracts": []
    },
    {
      "hash": "0xdd2e14421caa2b40a14e519248973be37677efeac7ae5be25c677d2d03736534",
      "transactionType": "CALL",
      "contractName": "FuturoToken",
      "contractAddress": "0xA49dF10dD5B84257dE634F4350218f615471Fc69",
      "function": "transfer(address,uint256):(bool)",
      "arguments": [
        "0x819fe72a87F0faDfa7dA89A908Da5afE427bB82f",
        "10000000000000000000"
      ],
      "rpc": "https://eth-goerli.g.alchemy.com/v2/49Z_NgeD3j-WxnHQzifUkHA_IZUCKyrZ",
      "transaction": {
        "type": "0x02",
        "from": "0xd5d1bb95259fe2c5a84da04d1aa682c71a1b8c0e",
        "to": "0xa49df10dd5b84257de634f4350218f615471fc69",
        "gas": "0x115b3",
        "value": "0x0",
        "data": "0xa9059cbb000000000000000000000000819fe72a87f0fadfa7da89a908da5afe427bb82f0000000000000000000000000000000000000000000000008ac7230489e80000",
        "nonce": "0xab",
        "accessList": []
      },
      "additionalContracts": []
    },
    {
      "hash": "0xe866e97be3ea6f038695adc87366839a932f64ae835abd2dc231e49ab1b23c7d",
      "transactionType": "CALL",
      "contractName": "StableCoin",
      "contractAddress": "0xbA7c8D4A583375a3104f251BF40AbD5ff2953E30",
      "function": "transfer(address,uint256):(bool)",
      "arguments": [
        "0x819fe72a87F0faDfa7dA89A908Da5afE427bB82f",
        "10000000000000000000"
      ],
      "rpc": "https://eth-goerli.g.alchemy.com/v2/49Z_NgeD3j-WxnHQzifUkHA_IZUCKyrZ",
      "transaction": {
        "type": "0x02",
        "from": "0xd5d1bb95259fe2c5a84da04d1aa682c71a1b8c0e",
        "to": "0xba7c8d4a583375a3104f251bf40abd5ff2953e30",
        "gas": "0x115b3",
        "value": "0x0",
        "data": "0xa9059cbb000000000000000000000000819fe72a87f0fadfa7da89a908da5afe427bb82f0000000000000000000000000000000000000000000000008ac7230489e80000",
        "nonce": "0xac",
        "accessList": []
      },
      "additionalContracts": []
    }
  ],
  "receipts": [],
  "libraries": [],
  "pending": [
    "0x005605c7d7c42425a0a0335ec0f3065a61af32f1ec27be1ee05870717da26e9a",
    "0xdd2e14421caa2b40a14e519248973be37677efeac7ae5be25c677d2d03736534",
    "0xe866e97be3ea6f038695adc87366839a932f64ae835abd2dc231e49ab1b23c7d"
  ],
  "path": "/Users/hunterking/Desktop/ethDenHack/eth-denver/backend/broadcast/MolochFund.s.sol/5/run-latest.json",
  "returns": {},
  "timestamp": 1677992831,
  "chain": 5,
  "multi": false,
  "commit": "dd39b3d"
}