{
  "transactions": [
    {
      "hash": "0x0e090ec1fa08713758082fedf2062aebf4e9ee745351fc94c6e38dc1f77f279e",
      "transactionType": "CALL",
      "contractName": null,
      "contractAddress": null,
      "function": null,
      "arguments": null,
      "rpc": "https://eth-goerli.g.alchemy.com/v2/49Z_NgeD3j-WxnHQzifUkHA_IZUCKyrZ",
      "transaction": {
        "type": "0x02",
        "from": "0xd5d1bb95259fe2c5a84da04d1aa682c71a1b8c0e",
        "to": "0x355cb6a06fb08d57c04702252e0c48563aa09a33",
        "gas": "0x9c20",
        "value": "0xb1a2bc2ec50000",
        "data": "0x",
        "nonce": "0xa3",
        "accessList": []
      },
      "additionalContracts": []
    },
    {
      "hash": "0x93b1a30ca23548b09cf7a9f3940b6460022ff6388e1477408348e3f4a345717d",
      "transactionType": "CALL",
      "contractName": "FuturoToken",
      "contractAddress": "0xA49dF10dD5B84257dE634F4350218f615471Fc69",
      "function": "transfer(address,uint256):(bool)",
      "arguments": [
        "0x355cB6A06FB08D57c04702252E0C48563AA09A33",
        "10000000000000000000"
      ],
      "rpc": "https://eth-goerli.g.alchemy.com/v2/49Z_NgeD3j-WxnHQzifUkHA_IZUCKyrZ",
      "transaction": {
        "type": "0x02",
        "from": "0xd5d1bb95259fe2c5a84da04d1aa682c71a1b8c0e",
        "to": "0xa49df10dd5b84257de634f4350218f615471fc69",
        "gas": "0x115b3",
        "value": "0x0",
        "data": "0xa9059cbb000000000000000000000000355cb6a06fb08d57c04702252e0c48563aa09a330000000000000000000000000000000000000000000000008ac7230489e80000",
        "nonce": "0xa4",
        "accessList": []
      },
      "additionalContracts": []
    },
    {
      "hash": "0x52590994fca6a6e26dc56a2b9e35bddc02879351486b1e29c6d9a4772f00f6a6",
      "transactionType": "CALL",
      "contractName": "StableCoin",
      "contractAddress": "0xbA7c8D4A583375a3104f251BF40AbD5ff2953E30",
      "function": "transfer(address,uint256):(bool)",
      "arguments": [
        "0x355cB6A06FB08D57c04702252E0C48563AA09A33",
        "10000000000000000000"
      ],
      "rpc": "https://eth-goerli.g.alchemy.com/v2/49Z_NgeD3j-WxnHQzifUkHA_IZUCKyrZ",
      "transaction": {
        "type": "0x02",
        "from": "0xd5d1bb95259fe2c5a84da04d1aa682c71a1b8c0e",
        "to": "0xba7c8d4a583375a3104f251bf40abd5ff2953e30",
        "gas": "0x115b3",
        "value": "0x0",
        "data": "0xa9059cbb000000000000000000000000355cb6a06fb08d57c04702252e0c48563aa09a330000000000000000000000000000000000000000000000008ac7230489e80000",
        "nonce": "0xa5",
        "accessList": []
      },
      "additionalContracts": []
    }
  ],
  "receipts": [],
  "libraries": [],
  "pending": [
    "0x0e090ec1fa08713758082fedf2062aebf4e9ee745351fc94c6e38dc1f77f279e",
    "0x93b1a30ca23548b09cf7a9f3940b6460022ff6388e1477408348e3f4a345717d",
    "0x52590994fca6a6e26dc56a2b9e35bddc02879351486b1e29c6d9a4772f00f6a6"
  ],
  "path": "/Users/hunterking/Desktop/ethDenHack/eth-denver/backend/broadcast/MolochFund.s.sol/5/run-latest.json",
  "returns": {},
  "timestamp": 1677992212,
  "chain": 5,
  "multi": false,
  "commit": "dd39b3d"
}