{
  "transactions": [
    {
      "hash": "0x558c73cdb6ce5e3a3916de1fb8b279c6419b726c29dc6d65deddd89cbceca227",
      "transactionType": "CALL",
      "contractName": "FuturoToken",
      "contractAddress": "0xA49dF10dD5B84257dE634F4350218f615471Fc69",
      "function": "approve(address,uint256):(bool)",
      "arguments": [
        "0x7b17360FA0F295011649FC32ACd292BB98A76f0C",
        "1000000000000000000"
      ],
      "rpc": "https://eth-goerli.g.alchemy.com/v2/49Z_NgeD3j-WxnHQzifUkHA_IZUCKyrZ",
      "transaction": {
        "type": "0x02",
        "from": "0xd5d1bb95259fe2c5a84da04d1aa682c71a1b8c0e",
        "to": "0xa49df10dd5b84257de634f4350218f615471fc69",
        "gas": "0xf998",
        "value": "0x0",
        "data": "0x095ea7b30000000000000000000000007b17360fa0f295011649fc32acd292bb98a76f0c0000000000000000000000000000000000000000000000000de0b6b3a7640000",
        "nonce": "0x4a",
        "accessList": []
      },
      "additionalContracts": []
    },
    {
      "hash": "0x42af6c1b1eb67ce2c05c7a0c3db6f179ca0b4c95d3be37797c76aa65c4c513c2",
      "transactionType": "CALL",
      "contractName": "ReaperFactory",
      "contractAddress": "0x7b17360FA0F295011649FC32ACd292BB98A76f0C",
      "function": "deployReaper((address,address,uint256,uint256)):(address)",
      "arguments": [
        "(0x49590a95121b2820Cf4E0741F4227dDf52f4992E, 0xD5d1bb95259Fe2c5a84da04D1Aa682C71A1B8C0E, 60, 70)"
      ],
      "rpc": "https://eth-goerli.g.alchemy.com/v2/49Z_NgeD3j-WxnHQzifUkHA_IZUCKyrZ",
      "transaction": {
        "type": "0x02",
        "from": "0xd5d1bb95259fe2c5a84da04d1aa682c71a1b8c0e",
        "to": "0x7b17360fa0f295011649fc32acd292bb98a76f0c",
        "gas": "0xac08f",
        "value": "0x0",
        "data": "0xc4d1fca000000000000000000000000049590a95121b2820cf4e0741f4227ddf52f4992e000000000000000000000000d5d1bb95259fe2c5a84da04d1aa682c71a1b8c0e000000000000000000000000000000000000000000000000000000000000003c0000000000000000000000000000000000000000000000000000000000000046",
        "nonce": "0x4b",
        "accessList": []
      },
      "additionalContracts": [
        {
          "transactionType": "CREATE",
          "address": "0xcC49D9F5d7C329A10db9Fb7575E20f616c6146D9",
          "initCode": "3d602d80600a3d3981f3363d3d373d3d3d363d7374a7a1794fb53af9c9d660ada2e082636994f53a5af43d82803e903d91602b57fd5bf3"
        }
      ]
    }
  ],
  "receipts": [
    {
      "transactionHash": "0x558c73cdb6ce5e3a3916de1fb8b279c6419b726c29dc6d65deddd89cbceca227",
      "transactionIndex": "0x2",
      "blockHash": "0x53ff6e5faed3a7de8a6c8495d966c5ad7d73b676f0d0578d112ab6a77ccbae79",
      "blockNumber": "0x833324",
      "from": "0xD5d1bb95259Fe2c5a84da04D1Aa682C71A1B8C0E",
      "to": "0xA49dF10dD5B84257dE634F4350218f615471Fc69",
      "cumulativeGasUsed": "0x1c240",
      "gasUsed": "0xb4b4",
      "contractAddress": null,
      "logs": [
        {
          "address": "0xA49dF10dD5B84257dE634F4350218f615471Fc69",
          "topics": [
            "0x8c5be1e5ebec7d5bd14f71427d1e84f3dd0314c0f7b2291e5b200ac8c7c3b925",
            "0x000000000000000000000000d5d1bb95259fe2c5a84da04d1aa682c71a1b8c0e",
            "0x0000000000000000000000007b17360fa0f295011649fc32acd292bb98a76f0c"
          ],
          "data": "0x0000000000000000000000000000000000000000000000000de0b6b3a7640000",
          "blockHash": "0x53ff6e5faed3a7de8a6c8495d966c5ad7d73b676f0d0578d112ab6a77ccbae79",
          "blockNumber": "0x833324",
          "transactionHash": "0x558c73cdb6ce5e3a3916de1fb8b279c6419b726c29dc6d65deddd89cbceca227",
          "transactionIndex": "0x2",
          "logIndex": "0x1",
          "removed": false
        }
      ],
      "status": "0x1",
      "logsBloom": "0x00000000000200000000000000000000000000000000000000000000000000000000000000000000000000000008000000000004000000000000000000200000000000000000000000000000000000000000000000000000000000000000000000400001000000000000000000000000000000000000000000000000000000000000000000000000000000000000000000000000000000000000000000000000020000000000000000000000000000000000000000000000000000000000000000000000000000000000010000000000000000000000000000000400000000000010000000000000000000004000000020000000000000000000000000000000",
      "type": "0x2",
      "effectiveGasPrice": "0xb2dbe4e4"
    },
    {
      "transactionHash": "0x42af6c1b1eb67ce2c05c7a0c3db6f179ca0b4c95d3be37797c76aa65c4c513c2",
      "transactionIndex": "0x3",
      "blockHash": "0x53ff6e5faed3a7de8a6c8495d966c5ad7d73b676f0d0578d112ab6a77ccbae79",
      "blockNumber": "0x833324",
      "from": "0xD5d1bb95259Fe2c5a84da04D1Aa682C71A1B8C0E",
      "to": "0x7b17360FA0F295011649FC32ACd292BB98A76f0C",
      "cumulativeGasUsed": "0x98b0f",
      "gasUsed": "0x7c8cf",
      "contractAddress": null,
      "logs": [
        {
          "address": "0x49590a95121b2820Cf4E0741F4227dDf52f4992E",
          "topics": [
            "0xb9956173924f9c1204bae41dd3737d7ed1161846d13183879cdc03c4b9f8d019",
            "0x0000000000000000000000000000000000000000000000000000000000000004",
            "0x8469f3d853f5b88bf5734f54855530acc51d1e6fa1b5161d6e9228c119f49993"
          ],
          "data": "0x000000000000000000000000000000000000000000000000000000000000005000000000000000000000000000000000000000000000000000000000000000e0000000000000000000000000000000000000000000000000000000000000000000000000000000000000000000000000000000000000000000000000000000000000000000000000000000000000000000000000000000000000000000000001000000000000000000000000000000000000000000000000000000006403d970000000000000000000000000000000000000000000000000000000000000030000000000000000000000000000000000000000000000000000000000000001e48d80ff0a000000000000000000000000000000000000000000000000000000000000002000000000000000000000000000000000000000000000000000000000000001920049590a95121b2820cf4e0741f4227ddf52f4992e000000000000000000000000000000000000000000000000000000000000000000000000000000000000000000000000000000000000000000000000000000c40f656a21000000000000000000000000000000000000000000000000000000000000004000000000000000000000000000000000000000000000000000000000000000800000000000000000000000000000000000000000000000000000000000000001000000000000000000000000cc49d9f5d7c329a10db9fb7575e20f616c6146d900000000000000000000000000000000000000000000000000000000000000010000000000000000000000000000000000000000000000000000000000000002003e7d38b97d2c1bb6554608521bf95abbe2f6ee4100000000000000000000000000000000000000000000000000000000000000000000000000000000000000000000000000000000000000000000000000000024610b5925000000000000000000000000cc49d9f5d7c329a10db9fb7575e20f616c6146d9000000000000000000000000000000000000000000000000000000000000000000000000000000000000000000000000000000000000000000000000000000000000000000000000007e7b2270726f706f73616c54797065223a20224144445f5348414d414e222c20227469746c65223a2022526561706572222c20226465736372697074696f6e223a202241737369676e2052656170657220636f6e74726163742061732061204d616e616765722d5368616d616e20616e6420536166652d4d6f64756c65227d0000",
          "blockHash": "0x53ff6e5faed3a7de8a6c8495d966c5ad7d73b676f0d0578d112ab6a77ccbae79",
          "blockNumber": "0x833324",
          "transactionHash": "0x42af6c1b1eb67ce2c05c7a0c3db6f179ca0b4c95d3be37797c76aa65c4c513c2",
          "transactionIndex": "0x3",
          "logIndex": "0x2",
          "removed": false
        },
        {
          "address": "0xcC49D9F5d7C329A10db9Fb7575E20f616c6146D9",
          "topics": [
            "0x7f26b83ff96e1f2b6a682f133852f6798a09c465da95921460cefb3847402498"
          ],
          "data": "0x0000000000000000000000000000000000000000000000000000000000000001",
          "blockHash": "0x53ff6e5faed3a7de8a6c8495d966c5ad7d73b676f0d0578d112ab6a77ccbae79",
          "blockNumber": "0x833324",
          "transactionHash": "0x42af6c1b1eb67ce2c05c7a0c3db6f179ca0b4c95d3be37797c76aa65c4c513c2",
          "transactionIndex": "0x3",
          "logIndex": "0x3",
          "removed": false
        },
        {
          "address": "0xA49dF10dD5B84257dE634F4350218f615471Fc69",
          "topics": [
            "0x8c5be1e5ebec7d5bd14f71427d1e84f3dd0314c0f7b2291e5b200ac8c7c3b925",
            "0x000000000000000000000000d5d1bb95259fe2c5a84da04d1aa682c71a1b8c0e",
            "0x0000000000000000000000007b17360fa0f295011649fc32acd292bb98a76f0c"
          ],
          "data": "0x0000000000000000000000000000000000000000000000000000000000000000",
          "blockHash": "0x53ff6e5faed3a7de8a6c8495d966c5ad7d73b676f0d0578d112ab6a77ccbae79",
          "blockNumber": "0x833324",
          "transactionHash": "0x42af6c1b1eb67ce2c05c7a0c3db6f179ca0b4c95d3be37797c76aa65c4c513c2",
          "transactionIndex": "0x3",
          "logIndex": "0x4",
          "removed": false
        },
        {
          "address": "0xA49dF10dD5B84257dE634F4350218f615471Fc69",
          "topics": [
            "0xddf252ad1be2c89b69c2b068fc378daa952ba7f163c4a11628f55a4df523b3ef",
            "0x000000000000000000000000d5d1bb95259fe2c5a84da04d1aa682c71a1b8c0e",
            "0x0000000000000000000000007b17360fa0f295011649fc32acd292bb98a76f0c"
          ],
          "data": "0x0000000000000000000000000000000000000000000000000de0b6b3a7640000",
          "blockHash": "0x53ff6e5faed3a7de8a6c8495d966c5ad7d73b676f0d0578d112ab6a77ccbae79",
          "blockNumber": "0x833324",
          "transactionHash": "0x42af6c1b1eb67ce2c05c7a0c3db6f179ca0b4c95d3be37797c76aa65c4c513c2",
          "transactionIndex": "0x3",
          "logIndex": "0x5",
          "removed": false
        },
        {
          "address": "0x7b17360FA0F295011649FC32ACd292BB98A76f0C",
          "topics": [
            "0x76543b6afd7b316567ca9e8757160611431aac018c899b968b7ab78378234519"
          ],
          "data": "0x000000000000000000000000cc49d9f5d7c329a10db9fb7575e20f616c6146d9",
          "blockHash": "0x53ff6e5faed3a7de8a6c8495d966c5ad7d73b676f0d0578d112ab6a77ccbae79",
          "blockNumber": "0x833324",
          "transactionHash": "0x42af6c1b1eb67ce2c05c7a0c3db6f179ca0b4c95d3be37797c76aa65c4c513c2",
          "transactionIndex": "0x3",
          "logIndex": "0x6",
          "removed": false
        }
      ],
      "status": "0x1",
      "logsBloom": "0x00000000004200000000000000000000000000020000000000000000000000000000000000000800000000000008040000010004000000200000000000200000000000000000000000000008000000000000000000000008800000020000000008400081000000000000000000000000084100000000200000000010000000000000000000000000000000000000000000000000000080000000040000000001020000000000000080000000002400000000000000000000002000000000000000000002000000000000010000040000000000008000000000000400000000000010000000000000000000004000000020000000000000000000000000000000",
      "type": "0x2",
      "effectiveGasPrice": "0xb2dbe4e4"
    }
  ],
  "libraries": [],
  "pending": [],
  "path": "/Users/hunterking/Desktop/ethDenHack/eth-denver/backend/broadcast/ReaperInitiation.s.sol/5/run-latest.json",
  "returns": {},
  "timestamp": 1677973877,
  "chain": 5,
  "multi": false,
  "commit": "dd39b3d"
}