{
  "transactions": [
    {
      "hash": null,
      "transactionType": "CALL",
      "contractName": "ReaperFactory",
      "contractAddress": "0xC7f2Cf4845C6db0e1a1e91ED41Bcd0FcC1b0E141",
      "function": "deployReaper(address):(address)",
      "arguments": [
        "0xe6A491f18f366AAcf6145830271009B5689373DB"
      ],
      "rpc": "https://eth-goerli.g.alchemy.com/v2/49Z_NgeD3j-WxnHQzifUkHA_IZUCKyrZ",
      "transaction": {
        "type": "0x02",
        "from": "0xd5d1bb95259fe2c5a84da04d1aa682c71a1b8c0e",
        "to": "0xc7f2cf4845c6db0e1a1e91ed41bcd0fcc1b0e141",
        "gas": "0x73a2",
        "value": "0x0",
        "data": "0xe4964746000000000000000000000000e6a491f18f366aacf6145830271009b5689373db",
        "nonce": "0x1",
        "accessList": []
      },
      "additionalContracts": []
    }
  ],
  "receipts": [],
  "libraries": [],
  "pending": [],
  "path": "/Users/hunterking/Desktop/ethDenHack/eth-denver/broadcast/ProposeShaman.s.sol/5/dry-run/run-latest.json",
  "returns": {},
  "timestamp": 1677540507,
  "chain": 5,
  "multi": false,
  "commit": "514dc46"
}