{
  "transactions": [
    {
      "hash": "0xca193b6276ac02935fab56f91a7aaa7784082aba3f2114980e675a3db97f8e71",
      "transactionType": "CALL",
      "contractName": "FuturoToken",
      "contractAddress": "0xA49dF10dD5B84257dE634F4350218f615471Fc69",
      "function": "mint(address,uint256)",
      "arguments": [
        "0xe6A491f18f366AAcf6145830271009B5689373DB",
        "100000000000000000000"
      ],
      "rpc": "https://eth-goerli.g.alchemy.com/v2/49Z_NgeD3j-WxnHQzifUkHA_IZUCKyrZ",
      "transaction": {
        "type": "0x02",
        "from": "0xd5d1bb95259fe2c5a84da04d1aa682c71a1b8c0e",
        "to": "0xa49df10dd5b84257de634f4350218f615471fc69",
        "gas": "0x113f8",
        "value": "0x0",
        "data": "0x40c10f19000000000000000000000000e6a491f18f366aacf6145830271009b5689373db0000000000000000000000000000000000000000000000056bc75e2d63100000",
        "nonce": "0xd",
        "accessList": []
      },
      "additionalContracts": []
    }
  ],
  "receipts": [
    {
      "transactionHash": "0xca193b6276ac02935fab56f91a7aaa7784082aba3f2114980e675a3db97f8e71",
      "transactionIndex": "0x4",
      "blockHash": "0xf6c5f041c254657f2a409874b9d062f3d98e9a924dbee3a5a1ccf71ca90452f7",
      "blockNumber": "0x82ef8a",
      "from": "0xD5d1bb95259Fe2c5a84da04D1Aa682C71A1B8C0E",
      "to": "0xA49dF10dD5B84257dE634F4350218f615471Fc69",
      "cumulativeGasUsed": "0x8782f",
      "gasUsed": "0xc7cd",
      "contractAddress": null,
      "logs": [
        {
          "address": "0xA49dF10dD5B84257dE634F4350218f615471Fc69",
          "topics": [
            "0xddf252ad1be2c89b69c2b068fc378daa952ba7f163c4a11628f55a4df523b3ef",
            "0x0000000000000000000000000000000000000000000000000000000000000000",
            "0x000000000000000000000000e6a491f18f366aacf6145830271009b5689373db"
          ],
          "data": "0x0000000000000000000000000000000000000000000000056bc75e2d63100000",
          "blockHash": "0xf6c5f041c254657f2a409874b9d062f3d98e9a924dbee3a5a1ccf71ca90452f7",
          "blockNumber": "0x82ef8a",
          "transactionHash": "0xca193b6276ac02935fab56f91a7aaa7784082aba3f2114980e675a3db97f8e71",
          "transactionIndex": "0x4",
          "logIndex": "0x8",
          "removed": false
        }
      ],
      "status": "0x1",
      "logsBloom": "0x00000000000000000000000000000000000000000000000000000000000000000000000000000000000000000008000000000004000000000000000000000000000000000000000000000008000000000000004000000000200000000000000000400000020000000000000000000800000000000000000000000010000000000000000000000000000000000000000000000000000000000000000000000000000000000000000000000000000000000000000000000000000000000000000000000002000000000000000000000000000000000000000000000000000020000000000000200000000000000000000000000000000000000000000000000000",
      "type": "0x2",
      "effectiveGasPrice": "0xb9d1c478"
    }
  ],
  "libraries": [],
  "pending": [],
  "path": "/Users/hunterking/Desktop/ethDenHack/eth-denver/broadcast/FundAddress.s.sol/5/run-latest.json",
  "returns": {},
  "timestamp": 1677720435,
  "chain": 5,
  "multi": false,
  "commit": "3e6c040"
}